{
  "contractName": "Background",
  "abi": [
    {
      "inputs": [
        {
          "internalType": "uint256",
          "name": "value",
          "type": "uint256"
        }
      ],
      "name": "storeValues",
      "outputs": [],
      "stateMutability": "nonpayable",
      "type": "function"
    },
    {
      "inputs": [
        {
          "internalType": "uint256",
          "name": "inital",
          "type": "uint256"
        }
      ],
      "name": "getValue",
      "outputs": [
        {
          "internalType": "uint256",
          "name": "",
          "type": "uint256"
        }
      ],
      "stateMutability": "view",
      "type": "function",
      "constant": true
    },
    {
      "inputs": [],
      "name": "getNumberOfValues",
      "outputs": [
        {
          "internalType": "uint256",
          "name": "",
          "type": "uint256"
        }
      ],
      "stateMutability": "view",
      "type": "function",
      "constant": true
    }
  ],
  "bytecode": "0x608060405234801561001057600080fd5b50610206806100206000396000f3fe608060405234801561001057600080fd5b50600436106100415760003560e01c80630ff4c916146100465780634312aee114610076578063fd2faf2d14610094575b600080fd5b610060600480360381019061005b919061014a565b6100b0565b60405161006d9190610186565b60405180910390f35b61007e6100d7565b60405161008b9190610186565b60405180910390f35b6100ae60048036038101906100a9919061014a565b6100e3565b005b60008082815481106100c5576100c46101a1565b5b90600052602060002001549050919050565b60008080549050905090565b600081908060018154018082558091505060019003906000526020600020016000909190919091505550565b600080fd5b6000819050919050565b61012781610114565b811461013257600080fd5b50565b6000813590506101448161011e565b92915050565b6000602082840312156101605761015f61010f565b5b600061016e84828501610135565b91505092915050565b61018081610114565b82525050565b600060208201905061019b6000830184610177565b92915050565b7f4e487b7100000000000000000000000000000000000000000000000000000000600052603260045260246000fdfea264697066735822122085b890a15ecfc099b79011e4c7dbdf166ff4fcbf89608e8dbf270891d4c9352664736f6c634300080c0033",
  "immutableReferences": {},
  "source": "// SPDX-License-Identifier: GPL-3.0\npragma solidity >=0.5.0;\n\ncontract Background {\n    uint256[] private values;\n\n    function storeValues(uint256 value) public virtual {\n        values.push(value);\n    }\n\n    function getValue(uint256 inital) public view returns (uint256) {\n        return values[inital];\n    }\n\n    function getNumberOfValues() public view virtual returns (uint256) {\n        return values.length;\n    }\n}\n",
  "sourcePath": "/home/administrator/Work/BlockChain/blockchain-ethereum/contracts/Background.sol",
  "compiler": {
    "name": "solc",
    "version": "0.8.12+commit.f00d7308.Emscripten.clang"
  },
  "schemaVersion": "3.4.6",
  "updatedAt": "2022-03-18T08:43:59.004Z",
  "networkType": "ethereum",
  "devdoc": {
    "kind": "dev",
    "methods": {},
    "version": 1
  },
  "userdoc": {
    "kind": "user",
    "methods": {},
    "version": 1
  }
}