{
  "contractName": "EntryPoint",
  "abi": [
    {
      "inputs": [
        {
          "internalType": "address",
          "name": "_background",
          "type": "address"
        }
      ],
      "stateMutability": "nonpayable",
      "type": "constructor"
    },
    {
      "inputs": [],
      "name": "backgroundAddress",
      "outputs": [
        {
          "internalType": "address",
          "name": "",
          "type": "address"
        }
      ],
      "stateMutability": "view",
      "type": "function",
      "constant": true
    },
    {
      "inputs": [],
      "name": "getBackgroundAddress",
      "outputs": [
        {
          "internalType": "address",
          "name": "",
          "type": "address"
        }
      ],
      "stateMutability": "view",
      "type": "function",
      "constant": true
    },
    {
      "inputs": [
        {
          "internalType": "uint256",
          "name": "first",
          "type": "uint256"
        },
        {
          "internalType": "uint256",
          "name": "second",
          "type": "uint256"
        }
      ],
      "name": "storeTwoValues",
      "outputs": [],
      "stateMutability": "nonpayable",
      "type": "function"
    },
    {
      "inputs": [],
      "name": "getNumberOfValues",
      "outputs": [
        {
          "internalType": "uint256",
          "name": "",
          "type": "uint256"
        }
      ],
      "stateMutability": "view",
      "type": "function",
      "constant": true
    }
  ],
  "bytecode": "0x608060405234801561001057600080fd5b50604051610555380380610555833981810160405281019061003291906100db565b806000806101000a81548173ffffffffffffffffffffffffffffffffffffffff021916908373ffffffffffffffffffffffffffffffffffffffff16021790555050610108565b600080fd5b600073ffffffffffffffffffffffffffffffffffffffff82169050919050565b60006100a88261007d565b9050919050565b6100b88161009d565b81146100c357600080fd5b50565b6000815190506100d5816100af565b92915050565b6000602082840312156100f1576100f0610078565b5b60006100ff848285016100c6565b91505092915050565b61043e806101176000396000f3fe608060405234801561001057600080fd5b506004361061004c5760003560e01c80634312aee1146100515780635b93e8991461006f578063791594851461008d578063e812d6a5146100ab575b600080fd5b6100596100c7565b60405161006691906102de565b60405180910390f35b61007761015e565b604051610084919061033a565b60405180910390f35b610095610187565b6040516100a2919061033a565b60405180910390f35b6100c560048036038101906100c09190610386565b6101ab565b005b60008060009054906101000a900473ffffffffffffffffffffffffffffffffffffffff1673ffffffffffffffffffffffffffffffffffffffff16634312aee16040518163ffffffff1660e01b8152600401602060405180830381865afa158015610135573d6000803e3d6000fd5b505050506040513d601f19601f8201168201806040525081019061015991906103db565b905090565b60008060009054906101000a900473ffffffffffffffffffffffffffffffffffffffff16905090565b60008054906101000a900473ffffffffffffffffffffffffffffffffffffffff1681565b60008054906101000a900473ffffffffffffffffffffffffffffffffffffffff1673ffffffffffffffffffffffffffffffffffffffff1663fd2faf2d836040518263ffffffff1660e01b815260040161020491906102de565b600060405180830381600087803b15801561021e57600080fd5b505af1158015610232573d6000803e3d6000fd5b5050505060008054906101000a900473ffffffffffffffffffffffffffffffffffffffff1673ffffffffffffffffffffffffffffffffffffffff1663fd2faf2d826040518263ffffffff1660e01b815260040161028f91906102de565b600060405180830381600087803b1580156102a957600080fd5b505af11580156102bd573d6000803e3d6000fd5b505050505050565b6000819050919050565b6102d8816102c5565b82525050565b60006020820190506102f360008301846102cf565b92915050565b600073ffffffffffffffffffffffffffffffffffffffff82169050919050565b6000610324826102f9565b9050919050565b61033481610319565b82525050565b600060208201905061034f600083018461032b565b92915050565b600080fd5b610363816102c5565b811461036e57600080fd5b50565b6000813590506103808161035a565b92915050565b6000806040838503121561039d5761039c610355565b5b60006103ab85828601610371565b92505060206103bc85828601610371565b9150509250929050565b6000815190506103d58161035a565b92915050565b6000602082840312156103f1576103f0610355565b5b60006103ff848285016103c6565b9150509291505056fea2646970667358221220a42f83601cc3fef96f70c548a23323d48a5d593e3ba93e81d036ae42436f589264736f6c634300080c0033",
  "immutableReferences": {},
  "source": "// SPDX-License-Identifier: GPL-3.0\npragma solidity >=0.5.0;\n\nimport \"./Background.sol\";\n\ncontract EntryPoint {\n    address public backgroundAddress;\n\n    constructor(address _background) {\n        backgroundAddress = _background;\n    }\n\n    function getBackgroundAddress() public view returns (address) {\n        return backgroundAddress;\n    }\n\n    function storeTwoValues(uint256 first, uint256 second) public {\n        Background(backgroundAddress).storeValues(first);\n        Background(backgroundAddress).storeValues(second);\n    }\n\n    function getNumberOfValues() public view returns (uint256) {\n        return Background(backgroundAddress).getNumberOfValues();\n    }\n}\n",
  "sourcePath": "/home/administrator/Work/BlockChain/blockchain-ethereum/contracts/EntryPoint.sol",
  "compiler": {
    "name": "solc",
    "version": "0.8.12+commit.f00d7308.Emscripten.clang"
  },
  "schemaVersion": "3.4.6",
  "updatedAt": "2022-03-17T11:07:11.985Z",
  "networkType": "ethereum",
  "devdoc": {
    "kind": "dev",
    "methods": {},
    "version": 1
  },
  "userdoc": {
    "kind": "user",
    "methods": {},
    "version": 1
  }
}